:020000040800F2
:10000000180400209D010008550B00084D0B000846
:10001000510B0008A9020008810B00080000000035
:100020000000000000000000000000005D0B000860
:10003000AD02000800000000590B0008610B000829
:10004000B7010008B7010008B7010008B7010008B0
:10005000B7010008B7010008B7010008B7010008A0
:10006000B7010008B7010008B7010008B701000890
:10007000B7010008B7010008B7010008B701000880
:10008000B7010008B7010008B7010008B701000870
:10009000B7010008B7010008B7010008B701000860
:1000A000B7010008B7010008B7010008B701000850
:1000B000B7010008B7010008B7010008B701000840
:1000C000B7010008B7010008B7010008B701000830
:1000D000B7010008B7010008B7010008B701000820
:1000E000B7010008B7010008B7010008B701000810
:1000F000B7010008B7010008B7010008B701000800
:10010000B7010008B7010008B7010008B7010008EF
:10011000B7010008B7010008B7010008B7010008DF
:10012000B7010008B7010008B7010008B7010008CF
:10013000B7010008B7010008B7010008B7010008BF
:10014000B7010008B7010008B7010008B7010008AF
:10015000B7010008B7010008B7010008B70100089F
:10016000B7010008B7010008B7010008B70100088F
:10017000B7010008B7010008B7010008000000003F
:10018000B7010008B7010008DFF80CD000F07AF8DA
:1001900000480047850B00081804002006488047E7
:1001A00006480047FEE7FEE7FEE7FEE7FEE7FEE75C
:1001B000FEE7FEE7FEE7FEE7650B000889010008A1
:1001C0002DE9F05F0546002092469B46884606468C
:1001D000814640241BE0284641464746224600F01F
:1001E00041F853465A46C01A914110D31146184659
:1001F000224600F028F82D1A67EB01084F462246E8
:100200000120002100F01FF817EB00094E41201ECD
:10021000A4F10104DFDC484631462A464346BDE8E6
:10022000F09FD2B201E000F8012B491EFBD27047CB
:100230000022F6E710B513460A4604461946FFF7B2
:10024000F0FF204610BD202A04DB203A00FA02F11C
:10025000002070479140C2F1200320FA03F31943B4
:1002600090407047202A04DB203A21FA02F0002156
:10027000704721FA02F3D040C2F1200291400843B6
:1002800019467047064C074D06E0E06840F0010350
:1002900094E8070098471034AC42F6D3FFF778FF94
:1002A000240D0008440D0008FEE700007047000020
:1002B000B0B5044600F0F0F8054640F20000C2F286
:1002C00000000078611C18BF044400BF00F0E4F88F
:1002D000401BA042FAD3B0BD2DE9F04F82B000F12F
:1002E0003E4241F6004502F1FF77C4F202050822C2
:1002F00043F6004E4FEAB726A84208BF0722C4F2D1
:10030000010E072E38BF4FEAB7224FF0010A002630
:1003100000274FF00008009208E000BF023708F104
:100320000108202F06F1040600F0AC800C680AFAE0
:1003300008F914EA090FF1D0D1F804C0BCF1120F8A
:1003400000F298800AFA0CF414F0061F00F0928074
:1003500084680322CD68BA409443BD402C43846036
:1003600044686FEA020B24EA09024FEA1C1404FAFB
:1003700008F44FEA480A22434260C2688C6802EAE5
:100380000B0204FA0AF422434CF01004122CC2604F
:1003900012D16FF0030202EA58020244D2F820C0E0
:1003A00006F01C040F230D69A3402CEA0303A540AB
:1003B0002B431362D1F804C002680CF0030302EA75
:1003C0000B0203FA0AF31A435FEACC034FF0010A67
:1003D0000260A3D5002243F644030192C4F2020353
:1003E0001A684FF6084C42F480421A601A68CFF639
:1003F000FF7C02F480420192019A28F003027244C9
:1004000052F80C3006F00C050F24AC40A343009CBE
:1004100004FA05F52B4342F80C30DEF800204B6857
:1004200042EA0905DC0358BF22EA0905CEF800506C
:10043000DEF804209C0342EA090558BF22EA0905B8
:10044000CEF80450DEF80820DC0242EA090543F643
:100450000C4458BF22EA0905CEF80850C4F2010442
:1004600022689B0242EA090558BF22EA0905256075
:1004700054E700BF032202FA07F46FEA040BBA46FE
:100480007BE700BF02B0BDE8F08F0000002A08BF84
:10049000090481617047000040F21000C2F20000C0
:1004A0000068704740F2000040F21001C2F2000004
:1004B000C2F2000100780A6810440860704700002A
:1004C00080B543F60040C4F20200016841F40071B7
:1004D0000160016841F480610160016841F480714C
:1004E0000160032000F074F8002000F005F800F02F
:1004F00027F8002080BD000070B540F20006C2F26F
:10050000000640F208013278C2F200014FF47A731B
:100510000968B3FBF2F20446B1FBF2F1084600F0C1
:10052000FFFA0F2C4FF0010508D838B94FF0FF3013
:1005300021460022002500F01FF87460284670BD97
:1005400082B0002043F640010190C4F202014A68E3
:1005500042F480424A604A6802F480420192019A61
:100560000090086840F080500860086800F08050F3
:100570000090009802B0704710B54EF60C5CCEF2B9
:10058000000CDCF80030C3F3022E8EF00704042CBC
:1005900028BF0424BEF103034FF0FF3E0EFA04F41B
:1005A00038BF0023A14399400EFA03F39A43114345
:1005B00000F00F0200F160430901043A03F56443BF
:1005C0006244002848BF02F10C03197010BD0000FE
:1005D0004EF60C51CEF200010A684FF6FF031A40A6
:1005E00060F30A2242F0806040F0FD7008607047BE
:1005F0002DE9F041002800F08B8043F60808C4F292
:1006000002080446D8F8F8030D4600F00F008842AF
:1006100007D288F8F853D8F8F80300F00F00A84282
:1006200076D12068810717D5410705D5D8F8001085
:1006300041F4E051C8F80010010705D5D8F80010C2
:1006400041F46041C8F80010D8F80010A26821F009
:10065000F0011143C8F80010C0073FD1D8F8F803E3
:1006600000F00F00A84207D988F8F853D8F8F8032B
:1006700000F00F00A8424BD12068410707D5D8F8F9
:100680000010E26821F4E0511143C8F8001000079F
:1006900008D5D8F80000216920F4604040EAC10084
:1006A000C8F8000000F054F8D8F8001040F61452D2
:1006B000C1F30311C0F60002515C40F2080220FAB7
:1006C00001F140F20400C2F200000068C2F2000230
:1006D0001160FFF711FF0020BDE8F0816068811E06
:1006E000022907D258F8081C89015CBF0120BDE827
:1006F000F08111E0012807D158F8081C89035CBF7C
:100700000120BDE8F08107E058F8081C890703D4F0
:100710000120BDE8F08100BFD8F8001021F00301EE
:100720000843C8F80000FFF7B7FE064641F28837D5
:10073000D8F80000616800F00C00B0EB810F8DD09C
:10074000FFF7AAFE801BB842F2D90320BDE8F08172
:1007500010B543F60404C4F20204606800F00C0013
:1007600008280BD0042819BF42F20040C0F2F40060
:1007700047F64000C0F27D1010BD00BF2068216820
:100780002368490247F64001C0F27D1100F03F02A4
:10079000C3F388105CBF42F20041C0F2F401A1FB38
:1007A00000010023FFF70CFD21680222C1F3014183
:1007B00002EB4101B0FBF1F010BD00002DE9F0416A
:1007C00082B0002860D00446007843F60006C007D7
:1007D000C4F202060BD0B06800F00C00042840F010
:1007E00097803068800302D5606800284CD020785C
:1007F00080071AD5B06810F00C0F09D0B06800F06F
:100800000C00082840F09E807068400200F19A8039
:100810003068800702D5E068012835D13068216949
:1008200020F0F80040EAC1003060207800072FD4A3
:100830002078400744D4A56915B3B06800F00C00D7
:10084000082840F0B380012D1ED0B068E16900F4A3
:1008500080028A4218D1216A00F03F028A4213D1F5
:1008600047F6C071626A014091420DD1A16A00F45D
:1008700040328A4208D1E16A00F07060884203D1B8
:10088000002002B0BDE8F081012002B0BDE8F08197
:100890006069002840F20000C4F2472076D00121B0
:1008A000C0F8801EFFF7F8FD054600BF706F800797
:1008B000BED4FFF7F1FD401B0228F7D9DDE000BFF1
:1008C000306C10F080580AD100200190306C40F05C
:1008D00080503064306C00F080500190019847F2F5
:1008E0000007C4F200073868C00541D4386840F4F6
:1008F00080703860FFF7D0FD054600BF3868C0053E
:1009000036D4FFF7C9FD401B0228F7D9B5E000BF78
:10091000B06800F00C00082803D1706840023FF571
:1009200060AF6068B0F5803F07D0B0F5A02F40F011
:100930008D80306840F480203060306840F4803032
:1009400030608DE0E068002852D00020C4F24720DB
:1009500001210160FFF7A0FD054600BF3068800758
:100960003FF55CAFFFF798FD401B0228F6D984E005
:10097000A068012805D005284ED1306F40F0040052
:100980003067306F40F0010030674FE00021C0F861
:10099000801EFFF781FD0546706F80077FF548AF29
:1009A000FFF77AFD401B0228F6D966E00027C4F263
:1009B000472700203866FFF76FFD022D05460BD153
:1009C000306880015ED5FFF767FD401B02284FF0BD
:1009D0000300F5D955E700BF306880017FF550AFBF
:1009E000FFF75AFD401B02284FF00300F4D948E7F7
:1009F0000020C4F2472000210160FFF74DFD0546AD
:100A0000306880077FF511AFFFF746FD401B0228D5
:100A10004FF00300F4D934E7316F002821F00101D1
:100A20003167316F21F0040131674DD0FFF734FD9C
:100A3000054641F2883700BF306F800756D4FFF774
:100A40002BFD401BB842F7D917E000BF31680028E2
:100A500021F480313160316821F4802131604FD040
:100A6000FFF71AFD054600BF306880033FF5BFAEB3
:100A7000FFF712FD401B6428F6D9032002B0BDE841
:100A8000F08100BF04F11C052FCD084340EA82101D
:100A9000D9034FF6FF729143A1F5803140EA05601A
:100AA0000843706001203866FFF7F6FC044600BF7B
:100AB000306880013FF5E4AEFFF7EEFC001B022832
:100AC0004FF00300F4D9DCE6FFF7E6FC054641F2FF
:100AD000883700BF306F800708D5FFF7DDFC401B6B
:100AE000B8424FF00300F5D9CBE600BFB8F1000FD4
:100AF0007FF4A1AE306C20F0805030649BE600BFE4
:100B0000FFF7CAFC054600BF306880037FF56FAE73
:100B1000FFF7C2FC401B64284FF00300F4D9B0E695
:100B2000411E0020B0EB116F1CBF012070474EF238
:100B30001002CEF2000251604EF62351CEF20001B7
:100B4000F0230B700721906011607047FEE70000F2
:100B5000FEE700007047000070470000704700008B
:100B6000FFF7A0BC4EF68850CEF20000016841F4B9
:100B7000700101604FF0006140F8801C7047000078
:100B8000FEE7000092B040F20044C4F20204FFF716
:100B900097FC06AD281D2C21FFF74AFB002743F6E2
:100BA00030060197C4F2020630694FF0010940F0A7
:100BB00080503061306900F080500190019846F615
:100BC00000400197CFF6FE70215841F4804121503A
:100BD000205800F4804001900198022006901020D7
:100BE0000A902846CDF824900C97FFF7E7FD0F20D8
:100BF000CDE9010701A80021CDE903770597FFF7AB
:100C0000F7FC0A9701973068FF2140F0010030603F
:100C10003068002200F001000190019801973068CF
:100C20004FF0FF0840F008003060306800F0080026
:100C3000019001980197306840F002003060306800
:100C4000A4F5806600F00200019001983046FFF79D
:100C50001DFC04F5006528464FF4704100224FF456
:100C6000704AFFF713FC2046382100224FF0380B62
:100C7000FFF70CFCCDE906890DF118083046414616
:100C8000CDE90877FFF728FB28464146CDE906A9BC
:100C9000CDE90877FFF720FB20464146CDE906B9AC
:100CA000CDE90877FFF718FB28464FF47041012281
:100CB000FFF7ECFB4FF47A70FFF7FAFA28464FF48F
:100CC00070410022FFF7E2FB4FF47A70FFF7F0FA71
:100CD000204638210122FFF7D9FB4FF47A70FFF745
:100CE000E7FA204638210022FFF7D0FB4FF47A7054
:100CF000FFF7DEFAD8E702E008C8121F08C1002A91
:100D0000FAD170477047002001E001C1121F002A8C
:100D1000FBD1704700000000000000000102030446
:100D200006070809480D0008000000201000000018
:100D3000F60C0008580D0008100000200804000000
:100D4000060D000800000000010000001000000077
:080D50000024F4000000000083
:040000050800018965
:00000001FF
