:020000040800F2
:1000000080060020310200084D0F0008450F00084F
:10001000490F000881060008CD100008000000000C
:10002000000000000000000000000000550F000864
:100030008506000800000000510F0008590F000855
:100040004B0200084B0200084B0200084B0200085C
:100050004B0200084B0200084B0200084B0200084C
:100060004B0200084B0200084B0200084B0200083C
:100070004B0200084B0200084B0200084B0200082C
:100080004B0200084B0200084B0200084B0200081C
:100090004B0200084B0200084B0200084B0200080C
:1000A0004B0200084B0200084B0200084B020008FC
:1000B0004B0200084B0200084B0200084B020008EC
:1000C0004B0200084B0200084B0200084B020008DC
:1000D0004B0200084B0200084B0200084B020008CC
:1000E0004B0200084B0200084B0200084B020008BC
:1000F0004B0200084B0200084B0200084B020008AC
:100100004B0200084B0200084B0200084B0200089B
:100110004B0200084B0200084B0200084B0200088B
:100120004B0200084B0200084B0200084B0200087B
:100130004B0200084B0200084B0200084B0200086B
:100140004B0200084B0200084B0200084B0200085B
:100150004B0200084B0200084B0200084B0200084B
:100160004B0200084B0200084B0200084B0200083B
:100170004B0200084B0200084B0200080000000080
:100180004B0200084B02000800F002F800F041F8B2
:100190000AA090E8000C82448344AAF10107DA45E2
:1001A00001D100F036F8AFF2090EBAE80F0013F0F3
:1001B000010F18BFFB1A43F001031847601000003D
:1001C00080100000103A24BF78C878C1FAD85207CE
:1001D00024BF30C830C144BF04680C6070470000C1
:1001E0000023002400250026103A28BF78C1FBD840
:1001F000520728BF30C148BF0B607047642900F028
:100200004F81002070471FB500F0F3FF1FBD10B5F0
:1002100010BD00F0FAF91146FFF7F5FF00F058FFA6
:1002200000F018FA03B4FFF7F2FF03BC00F020FA65
:100230000948804709480047FEE7FEE7FEE7FEE77A
:10024000FEE7FEE7FEE7FEE7FEE7FEE704480549B6
:10025000054A064B70470000B910000889010008E4
:100260008000002080060020800200208002002004
:100270000146002006E00A78104400EB802080EA66
:100280009010491C0A78002AF5D100EBC00080EAE2
:10029000D02000EBC03070470146087808B9002034
:1002A00070470120FCE700B503461846FFF7F4FF4E
:1002B00050B11846FFF7DCFF1E21B0FBF1F201FB45
:1002C00012001049087002E0FF200E49087000BDBE
:1002D0000C480078704770B588B0044600F0A8FE5E
:1002E000094806682046FFF7DEFF324607A1684648
:1002F00000F08EF86846FFF7BBFF0546284608B0B9
:1003000070BD0000000000200C000020CBE0E1EEFA
:10031000F0E0F2EEF0EDE0FF203031202564000047
:1003200053EA020C00F069802DE9F04B4FF0000613
:10033000002B1FBFB3FA83F503FA05F424FA05F680
:100340005E4012BF1643B2FA82F502FA05F4C5F117
:1003500020051EBF22FA05FC44EA0C04203556EAAB
:10036000044C4FEA144418BF641C4FF000084FF0CF
:100370000009904271EB030C39D3002919BFB1FA7F
:1003800081F701FA07F6B0FA80F700FA07F6C7F12D
:1003900020071EBF20FA07FC46EA0C062037B6FBF2
:1003A000F4FCA7EB0507103F07F01F0BCBF120066D
:1003B0002CFA06F60CFA0BFB44BFB3460026202F9E
:1003C000A4BF5E464FF0000B5BEA060C08BF4FF07F
:1003D000010B19EB0B0948EB0608ABFB027C06FB93
:1003E00002CC0BFB03CCC01B71EB0C01C1E70B462D
:1003F000024641464846BDE8F08B13B5084318BF96
:100400004FF0FF300146AFF30080BDE81C4070475D
:100410000FB41CB5074B06AA7B44694600900598AB
:1004200000F0DBF80020694600F0EAF81CBC5DF83B
:1004300014FB0000E50100002DE9F0410E460446E2
:10044000002020622046E168884730B3252805D087
:10045000D4E901219047206A401CF2E7E168204678
:1004600000278847050018D0A5F14100192802D8B7
:1004700020354FF400673246294620462760FFF7B3
:10048000BDFE40B1012804D0F61D26F0070608364F
:10049000D8E7361DD6E72846DAE7206ABDE8F081BE
:1004A0002DE9F0410646002410687529314616A54D
:1004B00010D0AFF30080002802DA404213A507E015
:1004C00031688A0701D512A502E0490704D511A5B4
:1004D000012401E0AFF3008000210A2206F1240785
:1004E00009E0B0FBF2FCB0FBF2F302FB1C00303081
:1004F00078541846491C0028F3D123462A46304632
:10050000BDE8F04100F00BB8000000002D00000035
:100510002B000000200000007047704770472DE955
:10052000F0470D4699469246044600F124080168BA
:10053000880604D5E06921F01001216000E0012067
:10054000A84201DD471B00E00027A1697A1902EBF0
:100550000900081AA0612078C00602D42046AFF333
:100560000080002608E0D4E901211AF8060090472F
:10057000206A401C761C20624E45F4DB2078C006C1
:100580000AD52046AFF3008006E0D4E901213020EF
:100590009047206A401C2062381EA7F10107F4DC56
:1005A00007E0D4E9012118F805009047206A401CB3
:1005B0002062281EA5F10105F3DC2046AFF3008080
:1005C0002078000602D50220BDE8F0870120FBE775
:1005D00001694A1C02610878704700B58FB0CDE907
:1005E00001310021059105497944CDE903101146F7
:1005F0006846FFF721FF0FB000BD0000E5FFFFFFD9
:100600000A6802F8010B0A607047754600F02CF882
:10061000AE4605006946534620F00700854618B0EF
:1006200020B5FFF713FEBDE820404FF000064FF065
:1006300000074FF000084FF0000BAC46ACE8C009D3
:10064000ACE8C009ACE8C009ACE8C00921F007017A
:100650008D46704710B50446AFF300802046BDE8D4
:100660001040FFF7DFBD0000004870471000002079
:1006700001491820ABBEFEE72600020070470000CB
:10068000FEE7000070470000B0B5044600F0F8F83F
:10069000054640F20400C2F200000078611C18BF59
:1006A000044400BF00F0ECF8401BA042FAD3B0BDF8
:1006B0002DE9F04F82B000F13E4241F6004502F1D3
:1006C000FF77C4F20205082243F6004E4FEAB72630
:1006D000A84208BF0722C4F2010E072E38BF4FEA16
:1006E000B7220125002600274FF00008009208E0FD
:1006F00008F101080437B8F1100F06F1020600F006
:10070000A7800C6805FA08F914EA090FF0D0D1F8AF
:1007100004B003220BF0030CACF10104B240012C35
:100720006FEA020A10D88268CC6802EA0A02B44072
:10073000224382604268CBF3001422EA090204FAE1
:1007400008F42243426005E0BCF1030F02D14FF0F0
:10075000030C20E0C2688C6802EA0A02B44022431B
:10076000BCF1020FC26016D16FF0030202EA580218
:100770000244D2F820C007F01C050F230C69AB40DF
:100780002CEA030304FA05F52B431362D1F804B0F5
:1007900001250BF0030C02680CFA06F302EA0A02C8
:1007A0001A431BF4403F0260A2D0002243F64403E8
:1007B0000192C4F202031A684FF6084C42F48042D8
:1007C0001A601A68CFF6FF7C02F480420192019A07
:1007D00028F00302724452F80C3007F00C050F2485
:1007E000AC40A343009C04FA05F52B4342F80C30BF
:1007F000DEF808204B6842EA090543F60C4CDC029F
:1008000058BF22EA0905CEF80850C4F2010CDCF802
:1008100000209C0242EA090558BF22EA0905CCF8EB
:100820000050DEF804209C0342EA090558BF22EA82
:100830000905CEF80450DEF80020DB0342EA090582
:1008400058BF22EA0905CEF80050012550E700BF45
:1008500002B0BDE8F08F00000069084018BF012019
:1008600070470000426902EA0103914341EA0341F3
:1008700081617047002A08BF090481617047000048
:1008800040F27800C2F200000068704740F20400B5
:1008900040F27801C2F20000C2F2000100780A685A
:1008A000104408607047000080B543F60040C4F271
:1008B0000200016841F400710160016841F4806147
:1008C0000160016841F480710160032000F074F858
:1008D0000F2000F005F800F027F8002080BD000090
:1008E00070B540F20406C2F2000640F20C01327804
:1008F000C2F200014FF47A730968B3FBF2F20446C6
:10090000B1FBF2F1084600F007FB0F2C4FF0010598
:1009100008D838B94FF0FF3021460022002500F0FA
:100920001FF87460284670BD82B0002043F6400175
:100930000190C4F202014A6842F480424A604A6867
:1009400002F480420192019A0090086840F08050C1
:100950000860086800F080500090009802B070476E
:1009600010B54EF60C5CCEF2000CDCF80030C3F390
:10097000022E8EF00704042C28BF0424BEF10303CA
:100980004FF0FF3E0EFA04F438BF0023A143994014
:100990000EFA03F39A43114300F00F0200F1604393
:1009A0000901043A03F564436244002848BF02F198
:1009B0000C03197010BD00004EF60C51CEF2000170
:1009C0000A684FF6FF031A4060F30A2242F0806083
:1009D00040F0FD70086070472DE9F041002800F0FC
:1009E0008B8043F60808C4F202080446D8F8F803DE
:1009F0000D4600F00700884207D288F8F853D8F86F
:100A0000F80300F00700A84276D12068810717D5C7
:100A1000410705D5D8F8001041F4E051C8F800109E
:100A2000010705D5D8F8001041F46041C8F800105E
:100A3000D8F80010A26821F0F0011143C8F80010A6
:100A4000C0073FD1D8F8F80300F00700A84207D943
:100A500088F8F853D8F8F80300F00700A8424BD103
:100A60002068410707D5D8F80010E26821F4E0516A
:100A70001143C8F80010000708D5D8F80000216914
:100A800020F4604040EAC100C8F8000000F054F8CB
:100A9000D8F8001041F20C22C1F30311C0F6000295
:100AA000515C40F20C0220FA01F140F20800C2F25F
:100AB00000000068C2F200021160FFF711FF002081
:100AC000BDE8F0816068811E022907D258F8081C31
:100AD00089015CBF0120BDE8F08111E0012807D148
:100AE00058F8081C89035CBF0120BDE8F08107E0CD
:100AF00058F8081C890703D40120BDE8F08100BF25
:100B0000D8F8001021F003010843C8F80000FFF7EF
:100B1000B7FE064641F28837D8F80000616800F059
:100B20000C00B0EB810F8DD0FFF7AAFE801BB842FE
:100B3000F2D90320BDE8F08110B543F60404C4F2F5
:100B40000204606800F00C0142F200400829C0F283
:100B5000F40007D0042918BF10BD41F20020C0F2F4
:100B60007A0010BD216801F03F0221682368490224
:100B7000C3F3881106D4A1FB00010023FFF7D0FBCB
:100B800007E000BF41F20020C0F27A004843B0FB0A
:100B9000F2F021680222C1F3014102EB4101B0FBF6
:100BA000F1F010BD2DE9F04182B0002868D0044674
:100BB000007843F60006C007C4F202060BD0B06806
:100BC00000F00C00042840F09F803068800302D5BC
:100BD0006068002854D0207880071AD5B06810F0DB
:100BE0000C0F09D0B06800F00C00082840F0A68077
:100BF0007068400200F1A2803068800702D5E0688A
:100C000001283DD13068216920F0F80040EAC10098
:100C100030602078000737D4207840074CD4A5698D
:100C200055B3B06800F00C00082840F0BB80012DDF
:100C300026D07068E16900F480028A4220D1216ADE
:100C400000F03F028A421BD147F6C071626A014040
:100C5000B1EB821F14D1A16A4FF6FF73C903994308
:100C600000F44032A1F580318A4209D1E16A00F0F6
:100C70007060B0EB016F03D1002002B0BDE8F081DD
:100C8000012002B0BDE8F0816069002840F2000058
:100C9000C4F2472076D00121C0F8801EFFF7F0FD96
:100CA000054600BF706F8007B6D4FFF7E9FD401B13
:100CB0000228F7D9DDE000BF306C10F080580AD16F
:100CC00000200190306C40F080503064306C00F0B7
:100CD00080500190019847F20007C4F2000738687D
:100CE000C00541D4386840F480703860FFF7C8FD13
:100CF000054600BF3868C00536D4FFF7C1FD401B6C
:100D00000228F7D9B5E000BFB06800F00C00082851
:100D100003D1706840023FF558AF6068B0F5803F7E
:100D200007D0B0F5A02F40F08D80306840F48020CF
:100D30003060306840F4803030608DE0E06800283A
:100D400052D00020C4F2472001210160FFF798FD36
:100D5000054600BF306880073FF554AFFFF790FDB0
:100D6000401B0228F6D984E0A068012805D0052898
:100D70004ED1306F40F004003067306F40F001001A
:100D800030674FE00021C0F8801EFFF779FD05466F
:100D9000706F80077FF540AFFFF772FD401B0228A0
:100DA000F6D966E00027C4F2472700203866FFF72F
:100DB00067FD022D05460BD1306880015ED5FFF737
:100DC0005FFD401B02284FF00300F5D955E700BF37
:100DD000306880017FF550AFFFF752FD401B0228BD
:100DE0004FF00300F4D948E70020C4F24720002167
:100DF0000160FFF745FD0546306880077FF509AFC4
:100E0000FFF73EFD401B02284FF00300F4D934E702
:100E1000316F002821F001013167316F21F00401A9
:100E200031674DD0FFF72CFD054641F2883700BFF2
:100E3000306F800756D4FFF723FD401BB842F7D927
:100E400017E000BF3168002821F48031316031683B
:100E500021F4802131604FD0FFF712FD054600BF1D
:100E6000306880033FF5B7AEFFF70AFD401B6428EA
:100E7000F6D9032002B0BDE8F08100BF04F11C05E3
:100E80002FCD084340EA8210D9034FF6FF729143F9
:100E9000A1F5803140EA05600843706001203866A2
:100EA000FFF7EEFC044600BF306880013FF5E4AE7A
:100EB000FFF7E6FC001B02284FF00300F4D9DCE644
:100EC000FFF7DEFC054641F2883700BF306F800730
:100ED00008D5FFF7D5FC401BB8424FF00300F5D909
:100EE000CBE600BFB8F1000F7FF499AE306C20F074
:100EF0008050306493E600BFFFF7C2FC054600BF98
:100F0000306880037FF567AEFFF7BAFC401B6428AA
:100F10004FF00300F4D9B0E6411E0020B0EB116F92
:100F20001CBF012070474EF21002CEF20002516049
:100F30004EF62351CEF20001F0230B700721906092
:100F400011607047FEE70000FEE70000FEE70000CA
:100F50007047000070470000FFF798BCB0B592B032
:100F6000002443F64000CDE90A44CDE90844059445
:100F7000CDE90344CDE901440094C4F202000168C4
:100F8000022541F080510160006800F0805000901F
:100F9000009847F200000094C4F20000016841F498
:100FA000804101600068A82100F480400090009812
:100FB000012006904FF4803007904FF480000D9090
:100FC00004200E90119006A80C95CDE90F15FFF79F
:100FD000E9FD28B1EFF3108072B600BFFEE700BF55
:100FE0000F20CDE901054FF4A05004904FF480503C
:100FF000059001A805210394FFF7EEFC20B1EFF363
:10100000108072B6FEE700BF06A0FFF764F940F259
:101010007004C2F200046060FFF75AF9207012B049
:10102000B0BD00BF446F7473656E6B6F000000004D
:1010300080B543F60400C4F20200416801F00C02DE
:1010400042F20041082AC0F2F40107D0042A21D15B
:1010500041F20021C0F27A011CE000BFD0F800C0CC
:101060000368026803F03F03C2F3881E5FEA4C2264
:1010700041F20022C0F27A0258BF0A46B2FBF3F1F5
:1010800002680223C2F301420EFB01F103EB4202AC
:10109000B1FBF2F140F20C02C2F2000211604068B2
:1010A00041F20C23C0F30310C0F60003185C21FAD0
:1010B00000F0106080BD00004EF68850CEF20000B7
:1010C000016841F47001016070470000FEE7000014
:1010D00086B040F60044C4F20204FFF7E5FBFFF7D8
:1010E0003DFF002743F63000CDE904770097C4F2B6
:1010F00002000168002241F08001016001684FF4A4
:10110000704801F08001009100990097016841F05A
:1011100001010160016801F001010091009900974F
:10112000016841F00801016000684FF4704100F06F
:101130000800009000982046FFF79CFBA4F540654E
:1011400001AE4FF0010928463146CDE901970397DA
:10115000FFF7AEFA20463146CDE90189CDE90377A4
:10116000FFF7A6FA06E000BF20464FF470410022C8
:10117000FFF780FB28460121FFF76EFB0128F3D122
:1011800020464FF48051FFF76DFB4FF4FA70FFF7E4
:101190007BFA20464FF48051FFF764FB20464FF462
:1011A0000051FFF75FFB4FF4FA70FFF76DFA20462E
:1011B0004FF40051FFF756FB20464FF48041FFF7F4
:1011C00051FB4FF4FA70FFF75FFA20464FF480416D
:1011D000FFF748FB20464FF40041FFF743FB4FF475
:1011E000FA70FFF751FA20464FF40041FFF73AFB3F
:1011F000C0E7F1EE100A4FF6FF71C0F2C03120EAED
:10120000010040F04070E1EE100A7047000000005D
:10121000000000000102030406070809401200084C
:101220000000002010000000C40100085012000857
:101230001000002070060000E0010008000000001F
:101240000000000001000000100000000024F40075
:040000050800018965
:00000001FF
