:020000040800F2
:10000000A006002029020008E50D0008DD0D00080B
:10001000E10D000861040008B90E000800000000AE
:10002000000000000000000000000000ED0D0008CE
:100030006504000800000000E90D0008F10D00084B
:10004000430200084302000843020008430200087C
:10005000430200084302000843020008430200086C
:10006000430200084302000843020008430200085C
:10007000430200084302000843020008430200084C
:10008000430200084302000843020008430200083C
:10009000430200084302000843020008430200082C
:1000A000430200084302000843020008430200081C
:1000B000430200084302000843020008430200080C
:1000C00043020008430200084302000843020008FC
:1000D00043020008430200084302000843020008EC
:1000E00043020008430200084302000843020008DC
:1000F00043020008430200084302000843020008CC
:1001000043020008430200084302000843020008BB
:1001100043020008430200084302000843020008AB
:10012000430200084302000843020008430200089B
:10013000430200084302000843020008430200088B
:10014000430200084302000843020008430200087B
:10015000430200084302000843020008430200086B
:10016000430200084302000843020008430200085B
:100170004302000843020008430200080000000098
:10018000430200084302000800F002F800F03CF8C7
:100190000AA090E8000C82448344AAF10107DA45E2
:1001A00001D100F031F8AFF2090EBAE80F0013F0F8
:1001B000010F18BFFB1A43F001031847E0100000BD
:1001C00000110000103A24BF78C878C1FAD852074D
:1001D00024BF30C830C144BF04680C6070470000C1
:1001E0000023002400250026103A28BF78C1FBD840
:1001F000520728BF30C148BF0B6070471FB501F0E0
:1002000037F81FBD10B510BD00F0EFF81146FFF72D
:10021000F5FF00F053FE00F00DF903B4FFF7F2FF15
:1002200003BC00F015F90000094880470948004761
:10023000FEE7FEE7FEE7FEE7FEE7FEE7FEE7FEE796
:10024000FEE7FEE704480549054A064B70470000F3
:10025000A50E000889010008A0000020A0060020CB
:10026000A0020020A002002053EA020C00F06980E6
:100270002DE9F04B4FF00006002B1FBFB3FA83F5BA
:1002800003FA05F424FA05F65E4012BF1643B2FAEB
:1002900082F502FA05F4C5F120051EBF22FA05FC1D
:1002A00044EA0C04203556EA044C4FEA144418BFC3
:1002B000641C4FF000084FF00009904271EB030CF2
:1002C00039D3002919BFB1FA81F701FA07F6B0FA5C
:1002D00080F700FA07F6C7F120071EBF20FA07FCD7
:1002E00046EA0C062037B6FBF4FCA7EB0507103FE7
:1002F00007F01F0BCBF120062CFA06F60CFA0BFBCD
:1003000044BFB3460026202FA4BF5E464FF0000B2B
:100310005BEA060C08BF4FF0010B19EB0B0948EB29
:100320000608ABFB027C06FB02CC0BFB03CCC01B1C
:1003300071EB0C01C1E70B46024641464846BDE859
:10034000F08B13B5084318BF4FF0FF300146AFF3F1
:100350000080BDE81C4070470FB41CB5074B06AACF
:100360007B4469460090059800F013F80020694628
:1003700000F022F81CBC5DF814FB000055000000E2
:10038000704770477047000001694A1C0261087895
:10039000704700B58FB0CDE90131002105910549C5
:1003A0007944CDE903101146684600F00AF80FB011
:1003B00000BD0000E5FFFFFF0A6802F8010B0A60BC
:1003C00070472DE9F04106460024D6E90170F56832
:1003D0008046304603E04146B847641C3046A84793
:1003E0000028F8D12046BDE8F081754600F02CF8D1
:1003F000AE4605006946534620F00700854618B012
:1004000020B5FFF71FFFBDE820404FF000064FF07A
:1004100000074FF000084FF0000BAC46ACE8C009F5
:10042000ACE8C009ACE8C009ACE8C00921F007019C
:100430008D46704710B50446AFF300802046BDE8F6
:100440001040FFF7EABE000000487047240000207B
:1004500001491820ABBEFEE72600020070470000ED
:10046000FEE7000070470000B0B5044600F0EAF86F
:10047000054640F20C00C2F200000078611C18BF73
:10048000044400BF00F0DEF8401BA042FAD3B0BD28
:100490002DE9F04F82B000F13E4241F6004502F1F5
:1004A000FF77C4F20205082243F6004E4FEAB72652
:1004B000A84208BF0722C4F2010E072E38BF4FEA38
:1004C000B7220125002600274FF00008009208E01F
:1004D00008F101080437B8F1100F06F1020600F028
:1004E000A7800C6805FA08F914EA090FF0D0D1F8D2
:1004F00004B003220BF0030CACF10104B240012C58
:100500006FEA020A10D88268CC6802EA0A02B44094
:10051000224382604268CBF3001422EA090204FA03
:1005200008F42243426005E0BCF1030F02D14FF012
:10053000030C20E0C2688C6802EA0A02B44022433D
:10054000BCF1020FC26016D16FF0030202EA58023A
:100550000244D2F820C007F01C050F230C69AB4001
:100560002CEA030304FA05F52B431362D1F804B017
:1005700001250BF0030C02680CFA06F302EA0A02EA
:100580001A431BF4403F0260A2D0002243F644030A
:100590000192C4F202031A684FF6084C42F48042FA
:1005A0001A601A68CFF6FF7C02F480420192019A29
:1005B00028F00302724452F80C3007F00C050F24A7
:1005C000AC40A343009C04FA05F52B4342F80C30E1
:1005D000DEF808204B6842EA090543F60C4CDC02C1
:1005E00058BF22EA0905CEF80850C4F2010CDCF825
:1005F00000209C0242EA090558BF22EA0905CCF80E
:100600000050DEF804209C0342EA090558BF22EAA4
:100610000905CEF80450DEF80020DB0342EA0905A4
:1006200058BF22EA0905CEF80050012550E700BF67
:1006300002B0BDE8F08F0000002A08BF0904816104
:100640007047000040F29C00C2F200000068704752
:1006500040F20C0040F29C01C2F20000C2F2000124
:1006600000780A68104408607047000080B543F6BF
:100670000040C4F20200016841F4007101600168A9
:1006800041F480610160016841F4807101600320E0
:1006900000F074F80F2000F005F800F027F80020B3
:1006A00080BD000070B540F20C06C2F2000640F2B8
:1006B00014013278C2F200014FF47A730968B3FB77
:1006C000F2F20446B1FBF2F1084600F071FB0F2C88
:1006D0004FF0010508D838B94FF0FF30214600220D
:1006E000002500F01FF87460284670BD82B000201D
:1006F00043F640010190C4F202014A6842F480428C
:100700004A604A6802F480420192019A00900868A7
:1007100040F080500860086800F080500090009819
:1007200002B0704710B54EF60C5CCEF2000CDCF84F
:100730000030C3F3022E8EF00704042C28BF0424DB
:10074000BEF103034FF0FF3E0EFA04F438BF00235E
:10075000A14399400EFA03F39A43114300F00F02AC
:1007600000F160430901043A03F564436244002840
:1007700048BF02F10C03197010BD00004EF60C5179
:10078000CEF200010A684FF6FF031A4060F30A2216
:1007900042F0806040F0FD70086070472DE9F04144
:1007A000002800F08B8043F60808C4F202080446D3
:1007B000D8F8F8030D4600F00700884207D288F801
:1007C000F853D8F8F80300F00700A84276D1206863
:1007D000810717D5410705D5D8F8001041F4E0513D
:1007E000C8F80010010705D5D8F8001041F46041A1
:1007F000C8F80010D8F80010A26821F0F0011143E9
:10080000C8F80010C0073FD1D8F8F80300F007007F
:10081000A84207D988F8F853D8F8F80300F0070081
:10082000A8424BD12068410707D5D8F80010E268EC
:1008300021F4E0511143C8F80010000708D5D8F89A
:100840000000216920F4604040EAC100C8F80000BF
:1008500000F054F8D8F8001041F28A22C1F30311D5
:10086000C0F60002515C40F2140220FA01F140F29D
:100870001000C2F200000068C2F200021160FFF72F
:1008800011FF0020BDE8F0816068811E022907D2B7
:1008900058F8081C89015CBF0120BDE8F08111E017
:1008A000012807D158F8081C89035CBF0120BDE866
:1008B000F08107E058F8081C890703D40120BDE83F
:1008C000F08100BFD8F8001021F003010843C8F8F8
:1008D0000000FFF7B7FE064641F28837D8F800005F
:1008E000616800F00C00B0EB810F8DD0FFF7AAFE1D
:1008F000801BB842F2D90320BDE8F08110B543F661
:100900000404C4F20204606800F00C0142F20040EA
:100910000829C0F2F40007D0042918BF10BD41F225
:100920000020C0F27A0010BD216801F03F0221686A
:1009300023684902C3F3881106D4A1FB00010023F8
:10094000FFF792FC07E000BF41F20020C0F27A00FE
:100950004843B0FBF2F021680222C1F3014102EBEF
:100960004101B0FBF1F010BD2DE9F04182B000284B
:1009700068D00446007843F60006C007C4F20206B9
:100980000BD0B06800F00C00042840F09F80306865
:10099000800302D56068002854D0207880071AD5DB
:1009A000B06810F00C0F09D0B06800F00C000828F7
:1009B00040F0A6807068400200F1A2803068800795
:1009C00002D5E06801283DD13068216920F0F800A7
:1009D00040EAC10030602078000737D42078400713
:1009E0004CD4A56955B3B06800F00C00082840F05D
:1009F000BB80012D26D07068E16900F480028A4234
:100A000020D1216A00F03F028A421BD147F6C07113
:100A1000626A0140B1EB821F14D1A16A4FF6FF73E5
:100A2000C903994300F44032A1F580318A4209D1CB
:100A3000E16A00F07060B0EB016F03D1002002B0FA
:100A4000BDE8F081012002B0BDE8F08160690028B6
:100A500040F20000C4F2472076D00121C0F8801E89
:100A6000FFF7F0FD054600BF706F8007B6D4FFF7B3
:100A7000E9FD401B0228F7D9DDE000BF306C10F023
:100A800080580AD100200190306C40F080503064D2
:100A9000306C00F080500190019847F20007C4F2DA
:100AA00000073868C00541D4386840F48070386069
:100AB000FFF7C8FD054600BF3868C00536D4FFF70C
:100AC000C1FD401B0228F7D9B5E000BFB06800F0B7
:100AD0000C00082803D1706840023FF558AF6068E9
:100AE000B0F5803F07D0B0F5A02F40F08D80306882
:100AF00040F480203060306840F4803030608DE019
:100B0000E068002852D00020C4F247200121016093
:100B1000FFF798FD054600BF306880073FF554AFEA
:100B2000FFF790FD401B0228F6D984E0A068012859
:100B300005D005284ED1306F40F004003067306F8B
:100B400040F0010030674FE00021C0F8801EFFF741
:100B500079FD0546706F80077FF540AFFFF772FDA6
:100B6000401B0228F6D966E00027C4F24727002080
:100B70003866FFF767FD022D05460BD1306880010E
:100B80005ED5FFF75FFD401B02284FF00300F5D94B
:100B900055E700BF306880017FF550AFFFF752FD89
:100BA000401B02284FF00300F4D948E70020C4F2AC
:100BB000472000210160FFF745FD054630688007AA
:100BC0007FF509AFFFF73EFD401B02284FF0030001
:100BD000F4D934E7316F002821F001013167316F1A
:100BE00021F0040131674DD0FFF72CFD054641F29D
:100BF000883700BF306F800756D4FFF723FD401BB6
:100C0000B842F7D917E000BF3168002821F48031DD
:100C10003160316821F4802131604FD0FFF712FD3F
:100C2000054600BF306880033FF5B7AEFFF70AFD09
:100C3000401B6428F6D9032002B0BDE8F08100BF54
:100C400004F11C052FCD084340EA8210D9034FF66A
:100C5000FF729143A1F5803140EA0560084370605E
:100C600001203866FFF7EEFC044600BF30688001C3
:100C70003FF5E4AEFFF7E6FC001B02284FF003004F
:100C8000F4D9DCE6FFF7DEFC054641F2883700BF09
:100C9000306F800708D5FFF7D5FC401BB8424FF0F6
:100CA0000300F5D9CBE600BFB8F1000F7FF499AE91
:100CB000306C20F08050306493E600BFFFF7C2FC38
:100CC000054600BF306880037FF567AEFFF7BAFCCA
:100CD000401B64284FF00300F4D9B0E6B0B50446D9
:100CE0000079012804BF0020B0BD01202071607987
:100CF000012819D102206071FFF7A4FC21684A681D
:100D0000D20717D1054602E04868C00712D1FFF7A5
:100D100099FC401B21680328F6D34868C007F3D12B
:100D200001206071022000E00420A060002000216A
:100D30002171B0BD88680121E060617100212171DD
:100D4000B0BD0000002804BF0120704710B5044664
:100D5000407920B900202071204600F00DF80220D3
:100D600060712068016841F0040101600120607138
:100D70000020A06010BD000081B0006840F60001B6
:100D8000C5F20601884201D001B0704700200090F2
:100D900043F63400C4F20200016841F040010160F2
:100DA000006800F040000090009801B0704700001B
:100DB000411E0020B0EB116F1CBF012070474EF2A6
:100DC0001002CEF2000251604EF62351CEF2000125
:100DD000F0230B700721906011607047FEE7000060
:100DE000FEE70000FEE700007047000070470000CB
:100DF000FFF72EBCB0B592B0002443F64000CDE919
:100E00000A44CDE908440594CDE90344CDE9014401
:100E10000094C4F202000168022541F08051016093
:100E2000006800F080500090009847F200000094A5
:100E3000C4F20000016841F480410160006800F4E0
:100E4000804000900098012006904FF48030079079
:100E50004FF480000D9004200E90A820CDE90F05DE
:100E60000720119006A80C95FFF77EFD20B1EFF347
:100E7000108072B6FEE700BF0F20CDE901054FF4E8
:100E8000A05004904FF48050059001A805210394D0
:100E9000FFF784FC20B1EFF3108072B6FEE700BFCD
:100EA00012B0B0BD4EF68850CEF20000016841F499
:100EB0007001016070470000FEE7000086B040F658
:100EC0000044C4F20204FFF7D1FBFFF793FF0026B2
:100ED00043F63000CDE904660096C4F202000168D2
:100EE000002241F08001016001684FF4704801F078
:100EF0008001009100990096016841F001010160B4
:100F0000016801F00101009100990096016841F02B
:100F10000801016000684FF4704100F00800009083
:100F200000982046FFF788FB01AD0127A4F540603B
:100F30002946CDE901760396FFF7AAFA204629460D
:100F4000CDE90187CDE90366FFF7A2FA40F28406F6
:100F5000C2F2000640F60001C5F20601304640F834
:100F6000081FFFF7EFFE28B1EFF3108072B600BF45
:100F7000FEE700BF00F0DAF8751C11E00122FFF770
:100F80005BFB20464FF480410122FFF755FB2046D2
:100F90004FF400410122FFF74FFB00F0C1F87060F1
:100FA000284600F0E5F830704FF47A70FFF75CFAED
:100FB00030781028F1D8DFE800F013192329393FE1
:100FC000494F656B757B8B09919B130020464FF44D
:100FD00070410022FFF730FB20464FF48051CDE7EF
:100FE00020464FF470410022D5E700BF20464FF461
:100FF00070410022FFF720FB20464FF48051C9E7E3
:1010000020464FF4704100220AE000BF20464FF412
:1010100070410022FFF710FB20464FF4805101225F
:10102000FFF70AFB20464FF40051B3E720464FF488
:101030007041002220E000BF20464FF470410022A2
:10104000FFF7FAFA20464FF4805114E020464FF49F
:10105000704100220AE000BF20464FF47041002298
:10106000FFF7EAFA20464FF480510122FFF7E4FA35
:1010700020464FF400510122FFF7DEFA20464FF4DC
:10108000804187E720464FF4704100227DE700BF92
:1010900020464FF470410022FFF7CEFA20464FF46D
:1010A000805171E720464FF4704100220AE000BFF2
:1010B00020464FF470410022FFF7BEFA20464FF45D
:1010C00080510122FFF7B8FA20464FF400515BE748
:1010D00020464FF47041002251E700BF20464FF4F4
:1010E00070410022FFF7A8FA20464FF4005145E76F
:1010F00020464FF470414DE70146002006E00A7893
:10110000104400EB802080EA9010491C0A78002AE5
:10111000F5D100EBC00080EAD02000EBC030704772
:1011200001480068704700000400002008B500BFB7
:10113000002000900B48006840F04000094908601A
:101140000846006800F04000009000BF00BF06485D
:10115000064908600846FFF7F5FD0020034988604E
:1011600008BD000034380240000806501800002076
:1011700070B588B0054610262E48007858B92E481C
:10118000FFF7ACFD064606F00F062A480078401C23
:101190002849087043E0274800781E281ADA2748B3
:1011A0000068C0F307342448007A00F00F00A04222
:1011B00004D123480078401C214908701E48FFF7DD
:1011C0008DFD064606F00F061A480078401C1949A6
:1011D000087024E0174800781E2820D117480068BE
:1011E000C0F307341448007A00F00F00A04204D185
:1011F00013480078401C12490870114800781B28D9
:1012000009DD10A16846FFF7A7F86846FFF774FFED
:101210001649086003E04FF0FF30144908600848A1
:1012200000782870034800786870AC70F0B208B09D
:1012300070BD00000800002018000020140C0240BF
:1012400000000020D0E5E7F3EBFCF2E0F220EBE059
:10125000E1EEF0E0F2EEF0EDEEE92031333A20C2BB
:10126000F1E520E2E5F0EDFB0000000004000020C5
:10127000F1EE100A4FF6FF71C0F2C03120EA010012
:1012800040F04070E1EE100A7047000000000000DE
:10129000000001020304060708090000C01200084C
:1012A0000000002018000000C4010008D812000847
:1012B0001800002088060000E0010008000000007F
:1012C000000000000000000000000000010000001D
:0812D000100000000024F400EE
:040000050800018965
:00000001FF
